:03000000020CCB24
:0C0CCB00787FE4F6D8FD758150020ACC59
:100BBB0057616974696E672E2E2E005265636569E5
:100BCB007665643A0041636365737320416C6C6FA7
:100BDB00776564004E6F7420416C6C6F77656400B1
:100BEB0038343030383541453642433400364230A4
:0E0BFB0030323938434244373300380E060199
:100ACC00C200782F7C007D007BFF7A0B79EB7E00D7
:100ADC007F1A1208D0754902784A7C007D007BFF92
:100AEC007A0C79057E007F041208D0758921758DEA
:100AFC00FD759850D28EE4F52E744A252EF8E6FF3B
:100B0C00120C6A120C94052EE52EC3940440EA7F55
:100B1C0080120C6A120C3FC2007B007A0079211201
:100B2C000C097F01120C6A120C947F80120C6A7BE8
:100B3C00FF7A0B79C6120C457FC0120C6A7B007AC7
:100B4C00007921120C457FD07E07120C98E4F52E0B
:100B5C00E52EC39549501FE52E75F00DA4242FF9F1
:100B6C00E4FAFB78217C00FD120AAFEF7004D2008E
:100B7C008004052E80DA7F01120C6A120C947F809F
:100B8C00120C6A7BFF3000067A0B79D080047A0B4A
:100B9C0079DF120C457FB87E0B120C987F01120C7A
:0F0BAC006A120C947F80120C6A120C3F020B230A
:060C09008B4E8A4F89505A
:100C0F00E4FFFE3098FDAB4EAA4FA9508F828E8322
:100C1F00E59912090FC2980FBF00010EEF640C4E39
:100C2F0070E1AB4EAA4FA9508F828E83E402090F59
:100C6A008F4E854E90C2A0C2A1D2A27F017E0012F1
:100C7A000C98C2A27F017E00120C98E54E640160B6
:0A0C8A0005E54EB40203120C94229B
:100CB3008F90D2A0C2A1D2A27F017E00120C98C253
:080CC300A27F017E00020C98E3
:060C3F007BFF7A0B79BB7C
:100C45008B4E8A4F8950AB4EAA4FA9501208F660B9
:100C5500130550E5507002054F14F91208F6FF12FE
:050C65000CB380E22247
:040C94007F057E005A
:100C9800EF4E6016758A67758CFCD28C308DFDC25C
:0B0CA8008CC28DEF1F70E91E80E62259
:10080000E709F608DFFA8046E709F208DFFA803EDA
:1008100088828C83E709F0A3DFFA8032E309F608C7
:10082000DFFA8078E309F208DFFA807088828C832F
:10083000E309F0A3DFFA806489828A83E0A3F608E3
:10084000DFFA805889828A83E0A3F208DFFA804CBD
:1008500080D280FA80C680D4806980F28033801094
:1008600080A680EA809A80A880DA80E280CA8033FD
:1008700089828A83ECFAE493A3C8C582C8CCC58375
:10088000CCF0A3C8C582C8CCC583CCDFE9DEE78045
:100890000D89828A83E493A3F608DFF9ECFAA9F0C4
:1008A000EDFB2289828A83ECFAE0A3C8C582C8CC1A
:1008B000C583CCF0A3C8C582C8CCC583CCDFEADE33
:1008C000E880DB89828A83E493A3F208DFF980CC95
:1008D00088F0EF60010E4E60C388F0ED2402B4048E
:1008E0000050B9F582EB2402B4040050AF23234535
:0608F00082239008507302
:1008F600BB010689828A83E0225002E722BBFE0200
:09090600E32289828A83E4932232
:10090F00F8BB010DE58229F582E5833AF583E8F01E
:10091F00225006E92582C8F622BBFE05E92582C8CA
:02092F00F222B2
:10093100E3F5F009E208B5F06D606B80F3E3F5F0E3
:1009410009E608B5F060605E80F387F009E608B556
:10095100F054605280F487F009E208B5F04860462F
:1009610080F488828C8387F009E0A3B5F038603683
:1009710080F488828C8387F009E493A3B5F0276023
:100981002580F388828C83E3F5F009E0A3B5F016A6
:10099100601480F388828C83E3F5F009E493A3B5B6
:1009A100F004600280F2020A5C808580E7808E801C
:1009B100D2803C8015806C807E809B80B5808B804E
:1009C100A1804F8070803A020A6889828A83ECFA9A
:1009D100E493F5F0A3C8C582C8CCC583CCE493A346
:1009E100C8C582C8CCC583CCB5F070606E80E18982
:1009F100828A83E493F5F0A3E208B5F05E605C803F
:100A0100F289828A83E0F5F0A3E608B5F04D604BE8
:100A110080F389828A83E0F5F0A3E208B5F03C60B7
:100A21003A80F389828A83E493F5F0A3E608B5F06E
:100A31002A602880F2805389828A83ECFAE493F554
:100A4100F0A3C8C582C8CCC583CCE0A3C8C582C801
:100A5100CCC583CCB5F004600280E27FFFB5F00223
:100A61000F2240027F012289828A83ECFAE0F5F0AD
:100A7100A3C8C582C8CCC583CCE0A3C8C582C8CCF5
:100A8100C583CCB5F0D560D380E389828A83ECFA43
:100A9100E0F5F0A3C8C582C8CCC583CCE493A3C854
:100AA100C582C8CCC583CCB5F0B160AF80E288F017
:100AB100ED2402B4040050A3F582EB2402B4040037
:0B0AC100509923234582239009AA735B
:00000001FF
